:020000040800F2
:1000000000500020690300080D03000813030008D6
:10001000190300081F030008250300080000000062
:100020000000000000000000000000002B0300089A
:100030003703000800000000430300084F030008D6
:10004000B1030008B1030008B1030008B1030008C0
:10005000B1030008B1030008B1030008B1030008B0
:10006000B1030008B1030008B1030008B1030008A0
:10007000B1030008B1030008B1030008B103000890
:10008000B1030008B1030008B1030008B103000880
:10009000B1030008B1030008B1030008B103000870
:1000A000B1030008B1030008B1030008B103000860
:1000B000B1030008B1030008B1030008B103000850
:1000C000B1030008B1030008B1030008B103000840
:1000D000B1030008B1030008B1030008B103000830
:1000E000B1030008B1030008B103000800000000DC
:1000F0000000000000000000000000000000000000
:0C01000000000000000000005FF808F1A3
:10010C0010B5054C237833B9044B13B10448AFF345
:10011C0000800123237010BD0400002000000000AB
:10012C002004000808B5034B1BB103490348AFF387
:10013C00008008BD0000000008000020200400081A
:10014C0080B500AF094B40F215229A6100F012F80D
:10015C0000F09EF800F078F80346054A1360044B53
:10016C001B68184600F0A0F8F4E700BF001002402E
:10017C002000002080B400AF2F4B304A1A60304B67
:10018C005B682F4A23F4404353602D4B4FF480326D
:10019C005A602C4BDB6A2B4A43F4C073D362294B55
:1001AC00284A1B6B1363274B5B6B264A43F00103F6
:1001BC005363244BDB68234A43F00603D360214B83
:1001CC009B68204A43F4602393601E4B9B681D4A36
:1001DC0043F4801393601B4B9B681A4A23F400630F
:1001EC009360184B9B68174A43F00803936000BF59
:1001FC00144B9B6803F00803002BF9D1114B9B683F
:10020C00104A43F00403936000BF0E4B9B6803F04D
:10021C000403002BF9D10B4B9B680A4A43F00203F1
:10022C009360084B9B68074A43F00103936000BF3F
:10023C00BD4680BC704700BF0008014000444444E8
:10024C00001002400024014080B400AF0E4B9B68AC
:10025C000D4A43F48003936000BF0B4B1B6803F003
:10026C000203002BF9D0084BDB6C1A46074B1A60C3
:10027C00054B1B68044A23F002031360034B1B68F5
:10028C001846BD4680BC7047002401402000002069
:10029C0080B400AF034B4FF440125A6000BFBD4610
:1002AC0080BC70470010014080B485B000AF78600E
:1002BC007B68002B04D1114B6FF40052DA6017E00D
:1002CC000023FB6006E00D4B4FF40052DA60FB6834
:1002DC000133FB60FB68B3F57A7FF4DB0023BB6072
:1002EC0002E0BB680133BB60BB68B3F57A7FF8DB17
:1002FC0000BF1437BD4680BC704700BF00100140E2
:10030C0080B400AFFEE780B400AFFEE780B400AF6E
:10031C00FEE780B400AFFEE780B400AFFEE780B428
:10032C0000AF00BFBD4680BC704780B400AF00BFBB
:10033C00BD4680BC704780B400AF00BFBD4680BCDA
:10034C00704780B500AF00F02FF800BF80BD80B4BF
:10035C0000AF00BFBD4680BC704700000C480D4983
:10036C000D4A002302E0D458C4500433C4188C4204
:10037C00F9D30A4A0A4C002301E013600432A2426A
:10038C00FBD3FFF7E4FF00F021F8FFF7D9FE70472D
:10039C00000000200400002040040008040000209D
:1003AC0028000020FEE7000080B400AF054B1B784E
:1003BC001A46054B1B681344034A136000BFBD4625
:1003CC0080BC7047000000202400002070B500267F
:1003DC000C4D0D4C641BA410A64209D100F01AF868
:1003EC0000260A4D0A4C641BA410A64205D170BD10
:1003FC0055F8043B98470136EEE755F8043B98470F
:10040C000136F2E738040008380400083804000804
:10041C003C040008F8B500BFF8BC08BC9E46704709
:0C042C00F8B500BFF8BC08BC9E46704745
:040438003101000886
:04043C000D010008A6
:0404400001000000B7
:040000050800036983
:00000001FF
